:100000000281E9128B511287D080FB026604AD0792
:10001000AC06ED1DAE0470011C4E6005128C3B80D9
:02002000F122CB
:10002300027ADF789C7C037D017BFF7AB479567E6C
:10003300007F0612742EE51412733C0063000F8BCD
:100043000112E20A1CA80B1FF60C26840D297A0E56
:100053002B8C0F2C02101C7A643834FF000038F606
:100063009002C8E06514600C1289C9128A339002A9
:10007300C8E514F07F30128B767F80128B767F3247
:10008300128AD97F30128AD99003BEE0C4540F2458
:1000930030FF128AD99003BEE0540F2430FF128A36
:1000A300D97F2D128AD99003BCE0C4540F2430FFAA
:1000B300128AD99003BCE0540F2430FF128AD97FEF
:1000C3002D128AD99003BBE0C4540F2430FF128A47
:1000D300D99003BBE0540F2430FF128AD990028BCE
:1000E300E07012900294E0700C90029DE070069014
:1000F30002A6E0601D9003A57410F0A374FFF0A3A3
:1001030074A2F0A37459F07B02E4FD7F0512815BB6
:1001130080139003A57410F0E4A3F0A3F07B01FD1A
:100123007F051286529003F5E06401700C7BFF7A21
:10013300B179297D06FF1285769003F5E06402709C
:100143000C7BFF7AB1792E7D06FF1285769003F53D
:10015300E06403700C7BFF7AB179337D06FF12856F
:10016300769003F5E06404700C7BFF7AB179387DF7
:1001730006FF1285769003F5E06405700C7BFF7A29
:10018300B1793D7D06FF1285769003F5E064067034
:100193000C7BFF7AB179427D06FF1285769003F5D9
:1001A300E060046407700D7BFF7AB179477D06E454
:1001B300FF128576900325E060030203079003BADC
:1001C300E0C4540F75F040A42459F9748C35F0FA47
:1001D3009003A674FFF0A3EAF0A3E9F09003A574DB
:1001E30020F07B027D10E4FF12815B9003BAE054A0
:1001F3000F75F040A42459F9748C35F0FA9003A6D6
:1002030074FFF0A3EAF0A3E9F09003A57420F07B58
:10021300027D107F0112815B9003A57420F0A3740B
:10022300FFF0A3748EF0A374D9F07B027D107F02DC
:1002330012815B9003B9E0C4540F75F040A42459B4
:10024300F9748C35F0FA9003A674FFF0A3EAF0A3D7
:10025300E9F09003A57420F07B027D107F031281E7
:100263005B9003B9E0540F75F040A42459F9748CE2
:1002730035F0FA9003A674FFF0A3EAF0A3E9F09037
:1002830003A57420F07B027D107F0412815B900331
:10029300A57420F0A374FFF0A3748EF0A374D9F0B7
:1002A3007B027D107F0512815B9003B8E0C4540F7D
:1002B30075F040A42459F9748C35F0FA9003A674B0
:1002C300FFF0A3EAF0A3E9F09003A57420F07B020A
:1002D3007D107F0612815B9003B8E0540F75F040E8
:1002E300A42459F9748C35F0FA9003A674FFF0A393
:1002F300EAF0A3E9F09003A57420F07B027D107F60
:100303000712815B900325E06401600302045990A6
:1003130003BAE0C4540F75F040A42419F9748F355F
:10032300F0FA9003A674FFF0A3EAF0A3E9F09003B8
:10033300A57420F07B027D10E4FF12815B9003BA69
:10034300E0540F75F040A42419F9748F35F0FA9036
:1003530003A674FFF0A3EAF0A3E9F09003A57420C9
:10036300F07B027D107F0112815B9003A57420F066
:10037300A374FFF0A37491F0A37499F07B027D1032
:100383007F0212815B9003B9E0C4540F75F040A45F
:100393002419F9748F35F0FA9003A674FFF0A3EAD9
:1003A300F0A3E9F09003A57420F07B027D107F0396
:1003B30012815B9003B9E0540F75F040A42419F93E
:1003C300748F35F0FA9003A674FFF0A3EAF0A3E963
:1003D300F09003A57420F07B027D107F0412815BF3
:1003E3009003A57420F0A374FFF0A37491F0A37499
:1003F30099F07B027D107F0512815B9003B8E0C406
:10040300540F75F040A42419F9748F35F0FA900352
:10041300A674FFF0A3EAF0A3E9F09003A57420F01B
:100423007B027D107F0612815B9003B8E0540F7549
:10043300F040A42419F9748F35F0FA9003A674FFE1
:10044300F0A3EAF0A3E9F09003A57420F07B027D0A
:10045300107F0712815B900325E0640260030205AD
:10046300AB9003BAE0C4540F75F040A424D9F974D7
:100473009135F0FA9003A674FFF0A3EAF0A3E9F034
:100483009003A57420F07B027D10E4FF12815B9042
:1004930003BAE0540F75F040A424D9F9749135F0F0
:1004A300FA9003A674FFF0A3EAF0A3E9F09003A582
:1004B3007420F07B027D107F0112815B9003A57491
:1004C30020F0A374FFF0A37494F0A37459F07B029B
:1004D3007D107F0212815B9003B9E0C4540F75F065
:1004E30040A424D9F9749135F0FA9003A674FFF06F
:1004F300A3EAF0A3E9F09003A57420F07B027D103A
:100503007F0312815B9003B9E0540F75F040A4247C
:10051300D9F9749135F0FA9003A674FFF0A3EAF0C9
:10052300A3E9F09003A57420F07B027D107F0412F1
:10053300815B9003A57420F0A374FFF0A37494F07F
:10054300A37459F07B027D107F0512815B9003B881
:10055300E0C4540F75F040A424D9F9749135F0FA2E
:100563009003A674FFF0A3EAF0A3E9F09003A57447
:1005730020F07B027D107F0612815B9003B8E0546C
:100583000F75F040A424D9F9749135F0FA9003A6BD
:1005930074FFF0A3EAF0A3E9F09003A57420F07BC5
:1005A300027D107F0712815B900325E064036003E3
:1005B3000206FD9003BAE0C4540F75F040A42499D9
:1005C300F9749435F0FA9003A674FFF0A3EAF0A34C
:1005D300E9F09003A57420F07B027D10E4FF128103
:1005E3005B9003BAE0540F75F040A42499F9749416
:1005F30035F0FA9003A674FFF0A3EAF0A3E9F090B4
:1006030003A57420F07B027D107F0112815B9003B0
:10061300A57420F0A374FFF0A37497F0A37419F0EA
:100623007B027D107F0212815B9003B9E0C4540FFB
:1006330075F040A42499F9749435F0FA9003A674E4
:10064300FFF0A3EAF0A3E9F09003A57420F07B0286
:100653007D107F0312815B9003B9E0540F75F04066
:10066300A42499F9749435F0FA9003A674FFF0A3C7
:10067300EAF0A3E9F09003A57420F07B027D107FDC
:100683000412815B9003A57420F0A374FFF0A3749C
:1006930097F0A37419F07B027D107F0512815B90A4
:1006A30003B8E0C4540F75F040A42499F974943549
:1006B300F0FA9003A674FFF0A3EAF0A3E9F0900325
:1006C300A57420F07B027D107F0612815B9003B836
:1006D300E0540F75F040A42499F9749435F0FA901E
:1006E30003A674FFF0A3EAF0A3E9F09003A5742036
:1006F300F07B027D107F0712815BE50A6401700CB9
:100703007BFF7AB1794CFD7F03128576E50A64029B
:10071300700C7BFF7AB1794FFD7F03128576E50A72
:100723006403700C7BFF7AB17952FD7F03128576E7
:10073300E50A6404700C7BFF7AB17955FD7F0312DF
:100743008576E50A6405700C7BFF7AB17958FD7FE5
:1007530003128576E50A6406700C7BFF7AB1795B38
:10076300FD7F03128576E50A6407700C7BFF7AB17F
:10077300795EFD7F03128576E50A6408700C7BFFC2
:100783007AB17961FD7F03128576E50A6409700CFD
:100793007BFF7AB17964FD7F03128576E50A6410E5
:1007A300700C7BFF7AB17967FD7F03128576E50ACA
:1007B3006411700C7BFF7AB1796AFD7F0312857631
:1007C300E50A6412700C7BFF7AB1796DFD7F031229
:1007D30085767BFF7AB179707D017F03128576E59B
:1007E3000E6401700D7BFF7AB179737D027F031272
:1007F3008576E50E6402700D7BFF7AB179787D0210
:100803007F03128576E50E6403700D7BFF7AB17961
:100813007D7D027F03128576E50E6404700D7BFFF8
:100823007AB179827D027F03128576E50E640570C5
:100833000D7BFF7AB179877D027F03128576E50E02
:100843006406700D7BFF7AB1798C7D027F0312857C
:1008530076E50E6407700D7BFF7AB179917D027F97
:1008630003128576E50E6408700D7BFF7AB17996E5
:100873007D027F03128576E50E6409700D7BFF7A96
:10088300B1799B7D027F03128576E50E6410700DAE
:100893007BFF7AB179A07D027F03128576E50E6432
:1008A30011700D7BFF7AB179A57D027F03128576E6
:1008B300E50E6412700D7BFF7AB179AA7D027F0386
:1008C300128576E50E6413700D7BFF7AB179AF7DE7
:1008D300027F03128576E50E6414700D7BFF7AB1F7
:1008E30079B47D027F03128576E50E6415700D7B66
:1008F300FF7AB179B97D027F03128576E50E64161E
:10090300700D7BFF7AB179BE7D027F03128576E598
:100913000E6417700D7BFF7AB179C37D027F0312DA
:100923008576E50E6418700D7BFF7AB179C87D0278
:100933007F03128576E50E6419700D7BFF7AB1791A
:10094300CD7D027F03128576E50E6420700D7BFF5B
:100953007AB179D27D027F03128576E50E64217028
:100963000D7BFF7AB179D77D027F03128576E50E81
:100973006422700D7BFF7AB179DC7D027F031285DF
:1009830076E50E6423700D7BFF7AB179E17D027FFA
:1009930003128576E50E6424700D7BFF7AB179E648
:1009A3007D027F03128576E50E6425700D7BFF7A49
:1009B300B179EB7D027F03128576E50E6426700D17
:1009C3007BFF7AB179F07D027F03128576E50E64B1
:1009D30027700D7BFF7AB179F57D027F031285764F
:1009E300E50E6428700D7BFF7AB179FA7D027F03EF
:1009F300128576E50E6429700D7BFF7AB179FF7D50
:100A0300027F03128576E50E6430700D7BFF7AB2A8
:100A130079047D027F03128576900328E0700690A7
:100A23000327E0600B900324E064026003020DBF20
:100A3300900288E0FF900324E06F60279003A57481
:100A430010F0E4A3F07B087D307F041286B97BFFAE
:100A53007AB279097D047F03128576900324E090AE
:100A63000288F0E50C75F00A84E5F0700D7BFF7ADF
:100A7300B279127D047F03128576E50C75F00A8442
:100A8300E5F06401700D7BFF7AB279157D047F0375
:100A9300128576E50C75F00A84E5F06402700D7B2F
:100AA300FF7AB279187D047F03128576E50C75F021
:100AB3000A84E5F06403700D7BFF7AB2791B7D0431
:100AC3007F03128576E50C75F00A84E5F064047003
:100AD3000D7BFF7AB2791E7D047F03128576E50CC8
:100AE30075F00A84E5F06405700D7BFF7AB2792115
:100AF3007D047F03128576E50C75F00A84E5F064C6
:100B030006700D7BFF7AB279247D047F031285760C
:100B1300E50C75F00A84E5F06407700D7BFF7AB28B
:100B230079277D047F03128576E50C75F00A84E549
:100B3300F06408700D7BFF7AB2792A7D047F03127B
:100B43008576E50C75F00A84E5F06409700D7BFF8A
:100B53007AB2792D7D047F03128576E50C75F00C4E
:100B630084E5F0700D7BFF7AB279307D057F031247
:100B73008576E50C75F00C84E5F06401700D7BFF60
:100B83007AB279337D057F03128576E50C75F00C17
:100B930084E5F06402700D7BFF7AB279367D057FC0
:100BA30003128576E50C75F00C84E5F06403700D93
:100BB3007BFF7AB279397D057F03128576E50C7563
:100BC300F00C84E5F06404700D7BFF7AB2793C7D10
:100BD300057F03128576E50C75F00C84E5F064055A
:100BE300700D7BFF7AB2793F7D057F03128576E531
:100BF3000C75F00C84E5F06406700D7BFF7AB27916
:100C0300427D057F03128576E50C75F00C84E5F0D3
:100C13006407700D7BFF7AB279457D057F031285EA
:100C230076E50C75F00C84E5F06408700D7BFF7AB3
:100C3300B279487D057F03128576E50C75F00C8447
:100C4300E5F06409700D7BFF7AB2794B7D057F0374
:100C5300128576E50C75F00C84E5F0640A700D7B63
:100C6300FF7AB2794E7D057F03128576E50C75F028
:100C73000C84E5F0640B700D7BFF7AB279517D052E
:100C83007F03128576E50C75F00C84E5F0700D7B1F
:100C9300FF7AB279547D067F03128576E50C75F0F1
:100CA3000C84E5F06401700D7BFF7AB279577D0601
:100CB3007F03128576E50C75F00C84E5F064027011
:100CC3000D7BFF7AB2795A7D067F03128576E50C98
:100CD30075F00C84E5F06403700D7BFF7AB2795DE7
:100CE3007D067F03128576E50C75F00C84E5F064D0
:100CF30004700D7BFF7AB279607D067F03128576DF
:100D0300E50C75F00C84E5F06405700D7BFF7AB299
:100D130079637D067F03128576E50C75F00C84E517
:100D2300F06406700D7BFF7AB279667D067F03124D
:100D33008576E50C75F00C84E5F06407700D7BFF98
:100D43007AB279697D067F03128576E50C75F00C1E
:100D530084E5F06408700D7BFF7AB2796C7D067FC1
:100D630003128576E50C75F00C84E5F06409700DCB
:100D73007BFF7AB2796F7D067F03128576E50C756A
:100D8300F00C84E5F0640A700D7BFF7AB279727D12
:100D9300067F03128576E50C75F00C84E5F0640B91
:100DA300700D7BFF7AB279757D067F031285767BA2
:100DB300FF7AB279787D077F03128576900324E06A
:100DC300FF6011900328E06003020EA5EF64016049
:100DD30003020EA5900327E07003020EA59002887C
:100DE300E0FF900324E06F60279003A57410F0E404
:100DF300A3F07B087D307F041286B97BFF7AB2793A
:100E0300097D047F03128576900324E0900288F025
:100E13009003A57410F0A374FFF0A374A2F0A3745D
:100E230039F07B027D307F0412815B7F30128B7639
:100E33007F9D128B769003EFE075F0648475F00A62
:100E430084AFF0EF60062430FF128AD99003EFE0FD
:100E530075F00A8475F00A84E5F02430FF128AD90C
:100E63009003EFE075F00A84E5F02430FF128AD98D
:100E73009003EFE075F0648475F00A84E5F0701573
:100E83007F2E128AD99003EBE075F00A84E5F024F3
:100E930030FF128AD97BFF7AB2797B7D077F0312F9
:100EA3008576900324E0FF6401600F900327E060E0
:100EB300030238F6EF60030238F6900328E070036C
:100EC3000238F6900288E0FF900324E06F602790D9
:100ED30003A57410F0E4A3F07B087D307F04128631
:100EE300B97BFF7AB279097D047F0312857690037B
:100EF30024E0900288F09003A57410F0A374FFF02F
:100F0300A374A2F0A37479F07B027D307F04128175
:100F13005B9003E5E06464600D7BFF7AB2797E7DCC
:100F2300057F031285767F30128B769003E5E064AC
:100F33006460077F9E128B76800F7F9D128B767F76
:100F430020128AD97F31128AD99003E5E075F00A1D
:100F53008475F00A84E5F02430FF128AD99003E502
:100F6300E075F00A84E5F02430FF128AD99003A5D6
:100F73007410F0A374FFF0A374A2F0A37499F07B30
:100F8300027D307F0702815B9002C8E06514601D1B
:100F93001289C9128A339002C8E514F0E49002E280
:100FA300F09002C4F09002C0F09002DCF07BFF7A74
:100FB300B27981E4FDFF1285767BFF7AB27984E40E
:100FC300FD7F011285767BFF7AB27987E4FD7F028C
:100FD3001285767BFF7AB2798AE4FD7F03128576E8
:100FE3007F87128B769003D6E02430FF128AD99044
:100FF30003A57440F0A374FFF0A314F07B01E4FD98
:10100300FF1286529002C4E0FF9003D6E0FED39F06
:101013004030EE940374809480500AE0C454F090FE
:1010230002C0F080189003CDE0FE9003D6E0C39E8B
:101033009002C050057420F080037430F0E49002F5
:10104300DEF09003D6E0FEC39F50369003CDE0FF61
:1010530024FDFDEED39D400CEF9EC454F0FFC374FA
:10106300309F8013EED394007480948040089002E4
:10107300C07410F08005E49002C0F09002DE7401A9
:10108300F09003D6E09002C4F09002DCE0FF9002FF
:10109300C0E06F601B9003A57440F0E4A3F0A3F0DD
:1010A3007B05FD7F011286529002C0E09002DCF0C6
:1010B3009002C4E024FE601024FE600E14600D1440
:1010C300600C240670368006800480028000900243
:1010D300C0E0FD9003A57410F0A374FFF0A3F07BB0
:1010E300047F011286529002C0E0FD9003A57410A4
:1010F300F0E4A3F0A3F07B017F0580159002C0E02C
:10110300FD9003A57410F0A374FFF0A3F07B057F9B
:10111300011286529003A57407F09003D6E0900362
:10112300A6F07B3E7D037F07127ED6E49002E2F0B9
:101133009002C4E0FF7E00C3940274809480500642
:101143009002DEE07011C3EF9403EE64809480504C
:10115300289002DEE070229002E2E0FF7BFF7AB289
:10116300798D7D051285769002E2E0FF04F07BFF26
:101173007AB279907D011285769002C4E0FF7E00F9
:10118300C394037480948050069002DEE07011C310
:10119300EF9404EE6480948050189002DEE07012A5
:1011A3009002E2E0FF04F07BFF7AB2799B7D0112AB
:1011B30085769002C4E0FF7E00C39404748094801B
:1011C30050069002DEE07011C3EF9405EE64809444
:1011D3008050189002DEE070129002E2E0FF04F00B
:1011E3007BFF7AB279A67D011285769002DEE0FF5D
:1011F3007003EF70129002E2E0FF04F07BFF7AB21B
:1012030079B17D011285769002C4E0FF7E00D3940C
:10121300017480948040069002DEE0701DC3EF9459
:1012230007EE6480948050249002C4E0940274809A
:10123300948040189002DEE070129002E2E0FF0416
:10124300F07BFF7AB279BC7D011285769002C4E00F
:10125300FF7E00D394027480948040069002DEE007
:10126300701DC3EF9408EE6480948050249002C4F0
:10127300E094037480948040189002DEE070129032
:1012830002E2E0FF04F07BFF7AB279C77D011285A9
:10129300769002C4E0FF7E00D39403748094804070
:1012A300069002DEE07026C3EF9409EE648094801A
:1012B30040030238F69002C4E09404748094805092
:1012C300030238F69002DEE060030238F69002E291
:1012D300E0FF04F07BFF7AB279D27D010236E99018
:1012E30002C8E06514601C1289C9128A339002C8CF
:1012F300E514F0E4FF1282759003D7740AF0E490CA
:10130300028AF09003D7E0640A7004FF1282757BAF
:10131300FF7AB279DDE4FDFF1285767BFF7AB2793D
:10132300E0E4FD7F011285767BFF7AB279E3E4FD89
:101333007F021285767BFF7AB279E6E4FD7F0312A2
:1013430085767F30128B767F81128B769003C8E08F
:10135300C4540F2430FF128AD99003C8E0540F24D9
:1013630030FF128AD97F3A128AD99003C7E0C45456
:101373000F2430FF128AD99003C7E0540F2430FFA3
:10138300128AD97F3A128AD99003C6E0C4540F2433
:1013930030FF128AD99003C6E0540F2430FF128A1B
:1013A300D99003A57440F0A374FFF0A314F07B015C
:1013B300E4FDFF1286527F30128B767F91128B767B
:1013C3007F32128AD97F30128AD99003CCE0C45479
:1013D3000F2430FF128AD99003CCE0540F2430FF3E
:1013E300128AD97F2D128AD99003CAE0C4540F24DC
:1013F30030FF128AD99003CAE0540F2430FF128AB7
:10140300D97F2D128AD99003C9E0C4540F2430FF29
:10141300128AD99003C9E0540F2430FF128AD9905D
:1014230003CCE0FD9003CAE0FB9003C9E09003A561
:10143300F07F141283849003CBEFF06401700D7B73
:10144300FF7AB179297D067F021285769003CBE07E
:101453006402700D7BFF7AB1792E7D067F021285BF
:10146300769003CBE06403700D7BFF7AB179337D13
:10147300067F021285769003CBE06404700D7BFF38
:101483007AB179387D067F021285769003CBE064CA
:1014930005700D7BFF7AB1793D7D067F021285765B
:1014A3009003CBE06406700D7BFF7AB179427D0631
:1014B3007F021285769003CBE060046407700D7B96
:1014C300FF7AB179477D067F02128576C2089003C1
:1014D300CCE09003A2F09003CAE09003A3F0900342
:1014E300C9E09003A4F01269FBE50BC4540F75F037
:1014F3000AA4FFE50B540F2FF50B75F00A84E5F0F2
:10150300700D7BFF7AB279127D017F03128576E538
:101513000B75F00A84E5F06401700D7BFF7AB279F4
:10152300157D017F03128576E50B75F00A84E5F0DE
:101533006402700D7BFF7AB279187D017F031285F7
:1015430076E50B75F00A84E5F06403700D7BFF7A92
:10155300B2791B7D017F03128576E50B75F00A8452
:10156300E5F06404700D7BFF7AB2791E7D017F0381
:10157300128576E50B75F00A84E5F06405700D7B42
:10158300FF7AB279217D017F03128576E50B75F031
:101593000A84E5F06406700D7BFF7AB279247D013D
:1015A3007F03128576E50B75F00A84E5F064077016
:1015B3000D7BFF7AB279277D017F03128576E50BD8
:1015C30075F00A84E5F06408700D7BFF7AB2792A1E
:1015D3007D017F03128576E50B75F00A84E5F064DF
:1015E30009700D7BFF7AB2792D7D017F0312857619
:1015F300E50B75F00C84E5F0700D7BFF7AB2793062
:101603007D027F03128576E50B75F00C84E5F064AB
:1016130001700D7BFF7AB279337D027F03128576E9
:10162300E50B75F00C84E5F06402700D7BFF7AB274
:1016330079367D027F03128576E50B75F00C84E520
:10164300F06403700D7BFF7AB279397D027F031258
:101653008576E50B75F00C84E5F06404700D7BFF73
:101663007AB2793C7D027F03128576E50B75F00C27
:1016730084E5F06405700D7BFF7AB2793F7D027FCC
:1016830003128576E50B75F00C84E5F06406700DA6
:101693007BFF7AB279427D027F03128576E50B7573
:1016A300F00C84E5F06407700D7BFF7AB279457D19
:1016B300027F03128576E50B75F00C84E5F0640870
:1016C300700D7BFF7AB279487D027F03128576E540
:1016D3000B75F00C84E5F06409700D7BFF7AB27929
:1016E3004B7D027F03128576E50B75F00C84E5F0E4
:1016F300640A700D7BFF7AB2794E7D027F031285F7
:1017030076E50B75F00C84E5F0640B700D7BFF7AC6
:10171300B279517D027F03128576E50B75F00C8457
:10172300E5F0700D7BFF7AB279547D017F0212855B
:1017330076E50B75F00C84E5F06401700D7BFF7AA0
:10174300B279577D017F02128576E50B75F00C8423
:10175300E5F06402700D7BFF7AB2795A7D017F0256
:10176300128576E50B75F00C84E5F06403700D7B50
:10177300FF7AB2795D7D017F02128576E50B75F004
:101783000C84E5F06404700D7BFF7AB279607D010F
:101793007F02128576E50B75F00C84E5F064057025
:1017A3000D7BFF7AB279637D017F02128576E50BAB
:1017B30075F00C84E5F06406700D7BFF7AB27966F0
:1017C3007D017F02128576E50B75F00C84E5F064EC
:1017D30007700D7BFF7AB279697D017F02128576EE
:1017E300E50B75F00C84E5F06408700D7BFF7AB2AD
:1017F300796C7D017F02128576E50B75F00C84E52B
:10180300F06409700D7BFF7AB2796F7D017F02125C
:101813008576E50B75F00C84E5F0640A700D7BFFAB
:101823007AB279727D017F02128576E50B75F00C31
:1018330084E5F0640B700D7BFF7AB279757D017FCF
:10184300021285767BFF7AB279787D037F03128556
:1018530076E5096401700D7BFF7AB1794C7D047FD5
:1018630003128576E5096402700D7BFF7AB1794F27
:101873007D047F03128576E5096403700D7BFF7A8F
:10188300B179527D047F03128576E5096404700DF6
:101893007BFF7AB179557D047F03128576E5096470
:1018A30005700D7BFF7AB179587D047F031285762D
:1018B300E5096406700D7BFF7AB1795B7D047F03D4
:1018C300128576E5096407700D7BFF7AB1795E7D39
:1018D300047F03128576E5096408700D7BFF7AB1F6
:1018E30079617D047F03128576E5096409700D7BB8
:1018F300FF7AB179647D047F03128576E50964106C
:10190300700D7BFF7AB179677D047F03128576E5DD
:10191300096411700D7BFF7AB1796A7D047F03122C
:101923008576E5096412700D7BFF7AB1796D7D04CC
:101933007F031285767BFF7AB179707D057F031271
:101943008576E50D6401700D7BFF7AB179737D06B1
:101953007F03128576E50D6402700D7BFF7AB17902
:10196300787D067F03128576E50D6403700D7BFF9A
:101973007AB1797D7D067F03128576E50D64047067
:101983000D7BFF7AB179827D067F03128576E50DA3
:101993006405700D7BFF7AB179877D067F0312851D
:1019A30076E50D6406700D7BFF7AB1798C7D067F39
:1019B30003128576E50D6407700D7BFF7AB179918B
:1019C3007D067F03128576E50D6408700D7BFF7A33
:1019D300B179967D067F03128576E50D6409700D56
:1019E3007BFF7AB1799B7D067F03128576E50D64D3
:1019F30010700D7BFF7AB179A07D067F0312857687
:101A0300E50D6411700D7BFF7AB179A57D067F0327
:101A1300128576E50D6412700D7BFF7AB179AA7D8C
:101A2300067F03128576E50D6413700D7BFF7AB193
:101A330079AF7D067F03128576E50D6414700D7B07
:101A4300FF7AB179B47D067F03128576E50D6415BF
:101A5300700D7BFF7AB179B97D067F03128576E538
:101A63000D6416700D7BFF7AB179BE7D067F03127C
:101A73008576E50D6417700D7BFF7AB179C37D061A
:101A83007F03128576E50D6418700D7BFF7AB179BB
:101A9300C87D067F03128576E50D6419700D7BFF03
:101AA3007AB179CD7D067F03128576E50D642070CA
:101AB3000D7BFF7AB179D27D067F03128576E50D22
:101AC3006421700D7BFF7AB179D77D067F03128580
:101AD30076E50D6422700D7BFF7AB179DC7D067F9C
:101AE30003128576E50D6423700D7BFF7AB179E1EE
:101AF3007D067F03128576E50D6424700D7BFF7AE6
:101B0300B179E67D067F03128576E50D6425700DB8
:101B13007BFF7AB179EB7D067F03128576E50D6451
:101B230026700D7BFF7AB179F07D067F03128576EF
:101B3300E50D6427700D7BFF7AB179F57D067F0390
:101B4300128576E50D6428700D7BFF7AB179FA7DF5
:101B5300067F03128576E50D6429700D7BFF7AB14C
:101B630079FF7D067F03128576E50D6430700D7B6A
:101B7300FF7AB279047D067F031285769003D7E05E
:101B8300FF9002C5E0B5070990028AE060030238BE
:101B9300F69003A57440F0E4A3F0A3F07B05FD7F6A
:101BA3000112865290028A7401F09003D7E0146008
:101BB3002B146052146063146074147003021C5C71
:101BC30024056003021C719003A57410F0A374FF35
:101BD300F0A3F07B01E4FD7F01021C6E9003A5746A
:101BE30010F0E4A3F0A374FFF07B01E4FD7F021285
:101BF30086529003A57410F0A374FFF0E4A3F07B66
:101C030001FD7F0380659003A57410F0A374FFF0BA
:101C1300A3F07B01E4FD7F0480519003A57410F0D1
:101C2300A374FFF0A3F07B017D107F02803D90033E
:101C3300A57410F0E4A3F0A374FFF07B017D107F83
:101C4300031286529003A57410F0A374FFF0E4A36B
:101C5300F07B017D107F0480129003A57410F0A324
:101C630074FFF0A3F07B017D107F05128652900371
:101C7300D7E09002C5F0229002C8E06514600C1210
:101C830089C9128A339002C8E514F07BFF7AB279CE
:101C9300E9E4FD7F011285767BFF7AB279FAE4FDF0
:101CA3007F020236E99002C8E06514605D1289C9BB
:101CB300128A339002C8E514F09003A57440F0E44F
:101CC300A3F0A304F0FBE4FD7F031286529003A567
:101CD3007430F0E4A3F0A304F0FBE4FD7F05128667
:101CE300529003A57440F0E4A3F0A304F0FBE4FDD9
:101CF3007F071286529003A57401F0A374FFF0A32B
:101D0300F07B047D307F041286527BFF7AB379091E
:101D1300E4FDFF1285767BFF7AB3790CE4FD7F0146
:101D23001285767BFF7AB3790FE4FD7F0212857605
:101D33009003A57430F0A374FFF0A314F07B01E4C7
:101D4300FDFF1286527BFF7AB379127D04E4FF1202
:101D530085767BFF7AB379177D06E4FF1285767B60
:101D6300FF7AB3791C7D027F011285767BFF7AB3FC
:101D730079217D027F021285767BFF7AB379267DF6
:101D8300027F03128576900327E07BFF60067AB318
:101D9300792B80047AB3792F7D047F0112857690A5
:101DA3000328E07BFF60067AB3792B80047AB3794A
:101DB3002F7D067F011285767F30128B767F8C1202
:101DC3008B769002CAE0FEA3E0FF7C037DE81272EB
:101DD3006F7C007D0A12726FED2430FF128AD99056
:101DE30002CAE0FEA3E0FF7C007D6412726F7C00F8
:101DF3007D0A12726FED2430FF128AD97BFF7AB30A
:101E030079327D057F021285769002CCE0FEA3E055
:101E1300FF7C037DE812726F7C007D0A12726FED06
:101E23002430FF128AD99002CCE0FEA3E0FF7C00AD
:101E33007D6412726F7C007D0A12726FED2430FF95
:101E4300128AD97BFF7AB379327D077F02128576B6
:101E5300900327E07BFF60067AB3792B80047AB383
:101E630079357D047F01128576900328E07BFF603E
:101E7300067AB3792B80047AB379357D067F011214
:101E830085767F9D128B76900285E0FEA3E0FF7C32
:101E9300037DE812726F7C007D0A12726FED2430AD
:101EA300FF128AD9900285E0FEA3E0FF7C007D64E7
:101EB30012726F7C007D0A12726FED2430FF128A5A
:101EC300D97BFF7AB379327D067F0312857690033F
:101ED300D8E0FF9002C6E06F70030238F69003A5C6
:101EE3007440F0E4A3F0A3F07B07FD7F0112865258
:101EF3009003A57440F0E4A3F0A304F0FBE4FD7F9A
:101F0300031286529003A57430F0E4A3F0A304F007
:101F1300FBE4FD7F051286529003A57440F0E4A311
:101F2300F0A304F0FBE4FD7F071286529003A5742F
:101F330001F0A374FFF0A3F07B047D307F041286CD
:101F4300529003D8E014603B146062146073147001
:101F530003021FD824046003021FED9003A5740E2F
:101F6300F0A374FFF0A3F07B017D117F041286526E
:101F73009003A5740EF0A374FFF0A37401F0FB7D2E
:101F83001180629003A5740EF0A374FFF0A3F07B9D
:101F9300017D117F061286529003A5740EF0A3747F
:101FA300FFF0A37401F0FB7D117F07803A9003A536
:101FB300740EF0A374FFF0A3F07B017D217F0480F6
:101FC300269003A5740EF0A374FFF0A3F07B017DAC
:101FD300217F0680129003A5740EF0A374FFF0A373
:101FE300F07B017D317F051286529003D8E0900289
:101FF300C6F0229002C8E0651460161289C9128ADD
:10200300339002C8E514F09002B2740AF09002DA39
:10201300F07BFF7AB37939E4FDFF1285767BFF7A93
:10202300B3793CE4FD7F011285767BFF7AB279DDDB
:10203300E4FD7F021285767BFF7AB279E0E4FD7FCF
:10204300031285769003A57440F0A374FFF0A314E4
:10205300F07B01E4FDFF1286527BFF7AB3793F7D6B
:1020630001E4FF1285769002B2E0FFC3940474800A
:1020730094804003022431EF75F009A4248BF58288
:10208300E43402F583E07BFF70067AB3794E800473
:102093007AB379537D017F011285769002B2E075A0
:1020A300F009A42493F582E43402F583E07BFF7006
:1020B300067AB3795880047AB3795E7D017F021280
:1020C30085767F30128B767F94128B769002B2E006
:1020D30075F009A4248CF582E43402F583E075F0ED
:1020E3000A842430FF128AD99002B2E075F009A461
:1020F300248CF582E43402F583E075F00A84E5F07C
:102103002430FF128AD97F3A128AD99002B2E0753D
:10211300F009A4248DF582E43402F583E075F00A16
:10212300842430FF128AD99002B2E075F009A42406
:102133008DF582E43402F583E075F00A84E5F0243A
:1021430030FF128AD97F3A128AD99002B2E075F031
:1021530009A4248EF582E43402F583E075F00A8441
:102163002430FF128AD99002B2E075F009A4248EBC
:10217300F582E43402F583E075F00A84E5F0243057
:10218300FF128AD99002B2E075F009A42493F58274
:10219300E43402F583E060030222949003A504F083
:1021A300E4A3F0A3F07B077D3F7F011286527F30CB
:1021B300128B767F99128B767F20128AD97F201219
:1021C3008AD97F20128AD97F20128AD97F32128A34
:1021D300D97F30128AD99002B2E075F009A4248F16
:1021E300F582E43402F583E075F00A842430FF12AB
:1021F3008AD99002B2E075F009A4248FF582E43401
:1022030002F583E075F00A84E5F02430FF128AD9E1
:102213007F2D128AD99002B2E075F009A42490F5BB
:1022230082E43402F583E075F00A842430FF128AD5
:10223300D99002B2E075F009A42490F582E4340247
:10224300F583E075F00A84E5F02430FF128AD97F24
:102253002D128AD99002B2E075F009A42491F58277
:10226300E43402F583E075F00A842430FF128AD93E
:102273009002B2E075F009A42491F582E43402F5EA
:1022830083E075F00A84E5F02430FF128AD9022432
:10229300317BFF7AB379647D017F031285769002E7
:1022A300B2E075F009A42492F582E43402F583E0E8
:1022B300C413131354019003A530E00C7401F0A36D
:1022C3007415F0A3745080077401F0E4A3F0A3F035
:1022D3007B017D3F7F011286529002B2E075F009C7
:1022E300A42492F582E43402F583E0C41313540367
:1022F3009003A530E00C7401F0A37415F0A374509F
:1023030080077401F0E4A3F0A3F07B017D3F7F021B
:102313001286529002B2E075F009A42492F582E489
:102323003402F583E0C41354079003A530E00C7422
:1023330001F0A37415F0A3745080077401F0E4A3B3
:10234300F0A3F07B017D3F7F031286529002B2E03F
:1023530075F009A42492F582E43402F583E0C454B1
:102363000F9003A530E00C7401F0A37415F0A3746F
:102373005080077401F0E4A3F0A3F07B017D3F7F5D
:10238300041286529002B2E075F009A42492F582F9
:10239300E43402F583E0131313541F9003A530E0D4
:1023A3000C7401F0A37415F0A3745080077401F04A
:1023B300E4A3F0A3F07B017D3F7F051286529002D8
:1023C300B2E075F009A42492F582E43402F583E0C7
:1023D3001313543F9003A530E00C7401F0A374155C
:1023E300F0A3745080077401F0E4A3F0A3F07B0121
:1023F3007D3F7F061286529002B2E075F009A42455
:1024030092F582E43402F583E0C3139003A530E030
:102413000C7401F0A37415F0A3745080077401F0D9
:10242300E4A3F0A3F07B017D3F7F07128652900265
:10243300DAE0FF9002B2E0FE6F603C9002DAEEF069
:10244300C394047480948050139003A57440F0E403
:10245300A3F0A3F07B07FD7F011286529002B2E046
:102463002404FF9003A57410F0A314F0A374FFF0E9
:102473007B01E4FD1286529002D6E0FF900284E0D5
:10248300FE6F70030238F69002D6EEF09003A57447
:102493002FF0E4A3F0A3F07B077D107F0112865297
:1024A300900284E0FFD39400748094805003023838
:1024B300F69002B2E094047480948040030238F6EC
:1024C300EF14B40C0040030238F69024DB75F003DC
:1024D300A4C58325F0C583730224FF0225130225B7
:1024E3002602254A02255D02256E0225A40225F057
:1024F30002262C02264202265802266E9003A57459
:1025030010F0A374FFF0A314F07B017D100225EB00
:102513009003A57410F0A374FFF0A3F07B017D106A
:1025230002263D9003A57410F0E4A3F0A374FFF01A
:102533007B017D107F051286529003A57410F0A3D2
:1025430074FFF0E40238299003A57410F0A374FF1C
:10255300F0A3F07B017D100226149003A57410F004
:10256300A374FFF0A3F07B02022DCC9002B2E075BE
:10257300F009A42493F582E43402F583E09003A5E3
:102583007010740FF0A374FFF0A3F07B017D300291
:10259300263D740FF0A374FFF0A314F07B01022D0A
:1025A300E19002B2E075F009A42493F582E43402C9
:1025B300F583E09003A57022740FF0E4A3F0A374F5
:1025C300FFF07B017D307F051286529003A5740FC7
:1025D300F0A374FFF0E4A3022664740FF0A374FF66
:1025E300F0A314F07B017D307F020238319002B2F8
:1025F300E075F009A42493F582E43402F583E090B6
:1026030003A57012740FF0A374FFF0A3F07B017D98
:10261300307F07023831740FF0A374FFF0A314F076
:102623007B017D307F030238319003A5740FF0A343
:1026330074FFF0A314F07B017D307F0402383190E6
:1026430003A5740FF0A374FFF0A314F07B017D3096
:102653007F050238319003A5740FF0A374FFF0A334
:1026630014F07B017D307F060238319003A5740F8F
:10267300F0A374FFF0A314F07B017D307F070238D1
:10268300319002C8E06514601D1289C9128A339023
:1026930002C8E514F0E490033DF07F02127D16E4D6
:1026A300900323F0D2BC7BFF7AB37973E4FDFF126E
:1026B30085767BFF7AB37976E4FD7F011285767B9D
:1026C300FF7AB3790FE4FD7F021285769003A57438
:1026D30031F0A374FFF0A314F07B01E4FDFF128635
:1026E300527BFF7AB379797D04E4FF1285767F30DC
:1026F300128B767F86128B767F3A128AD99003DF0C
:10270300E0FEA3E0FF7C007D6412726F7C007D0A13
:1027130012726FED2430FF128AD99003DFE0FEA31B
:10272300E0FF7C007D0A12726F7C007D0A12726FDB
:10273300ED2430FF128AD99003DFE0FEA3E0FF7C93
:10274300007D0A12726FED2430FF128AD97F941232
:102753008B769003DCE075F00A842430FF128AD96B
:102763009003DCE075F00A84E5F02430FF128AD987
:102773007F3A128AD99003DDE075F00A842430FF92
:10278300128AD99003DDE075F00A84E5F02430FF66
:10279300128AD97F3A128AD99002E0E075F00A844E
:1027A3002430FF128AD99002E0E075F00A84E5F044
:1027B3002430FF128AD97F8C128B769003D9E0756F
:1027C300F00A842430FF128AD99003D9E075F00A05
:1027D30084E5F02430FF128AD97F3A128AD9900314
:1027E300DAE075F00A842430FF128AD99003DAE024
:1027F30075F00A84E5F02430FF128AD97F3A128AF1
:10280300D99003DBE075F00A842430FF128AD99053
:1028130003DBE075F00A84E5F02430FF128AD97FE8
:1028230098128B7690033DE0C413131354012430A4
:10283300FF128AD990033DE0C4131354012430FFDF
:10284300128AD990033DE0C41354012430FF128A45
:10285300D990033DE0C454012430FF128AD9900378
:102863003DE013131354012430FF128AD990033D22
:10287300E0131354012430FF128AD990033DE0C3BF
:102883001354012430FF128AD99003E3E0700D7BC7
:10289300FF7AB3797E7D047F031285769003E3E0AC
:1028A3006401700D7BFF7AB379877D047F03128502
:1028B300769003E3E06402700D7BFF7AB379907D39
:1028C300047F031285769002D7E070030229739088
:1028D3000323E075F00384E5F0704890032BE07068
:1028E3003A900282E07004FF127D16900282E06447
:1028F3000170057F01127D16900282E0640270056B
:102903007F07127D16900282E0C394027480948044
:102913005002800AE4900282F080559002D9E004CC
:10292300F0804D90032BE070479002D9E0D39400E0
:1029330074809480403A900282E07004FF127D1606
:10294300900282E0640170057F01127D169002827D
:10295300E0640270057F07127D16900282E0C39443
:1029630002748094805003E004F09002D9E014F0E4
:10297300900323E004F0229002C8E06514601A1269
:1029830089C9128A339002C8E514F09002E1740AEF
:10299300F09003BAE0900329F07BFF7AB37999E4CE
:1029A300FDFF1285767BFF7AB3799CE4FD7F0112EC
:1029B30085767BFF7AB279DDE4FD7F021285767B33
:1029C300FF7AB279E0E4FD7F031285769003A57464
:1029D30040F0A374FFF0A314F07B01E4FDFF128623
:1029E300527BFF7AB3799F7D01E4FF1285769002D3
:1029F300EAE07BFF60067AB379AA80047AB379AD03
:102A03007D06E4FF1285767BFF7AB379B07D017F83
:102A1300011285767BFF7AB379BB7D017F02128534
:102A2300767BFF7AB379C07D057F021285767BFFC3
:102A33007AB379C57D017F031285767BFF7AB379FB
:102A4300CA7D057F031285767F30128B767F8B12CA
:102A53008B769002B3E075F00A842430FF128AD992
:102A63009002B3E075F00A84E5F02430FF128AD9AE
:102A73007F8F128B769002B4E075F00A842430FFC6
:102A8300128AD99002B4E075F00A84E5F02430FF8D
:102A9300128AD97F9B128B769002B5E075F00A8477
:102AA3002430FF128AD99002B5E075F00A84E5F06C
:102AB3002430FF128AD97F9F128B769002B6E0757D
:102AC300F00A842430FF128AD99002B6E075F00A26
:102AD30084E5F02430FF128AD99002E1E0FF9002EE
:102AE300FFE06F6015EFF09003A57440F0E4A3F0EE
:102AF300A3F07B07FD7F011286529002FFE0FFC324
:102B030094057480948040030238F6EF1460261411
:102B1300603814604A14605C240460030238F69041
:102B230003A57410F0A374FFF0A314F07B01E4FD7C
:102B33007F060238319003A57410F0A374FFF0A34D
:102B4300F07B017D207F030238319003A57410F0E0
:102B5300A374FFF0A3F07B017D207F07023831903F
:102B630003A57410F0A374FFF0A3F07B017D307F05
:102B7300030238319003A57410F0A374FFF0A3F09F
:102B83007B017D307F070238319002C8E065146015
:102B93000C1289C9128A339002C8E514F09002C856
:102BA300E06514600C1289C9128A339002C8E514D7
:102BB300F09003A57440F0A374FFF0A374AFF0A3E7
:102BC3007429F07B40E4FDFF125D197BFF7AB37932
:102BD300CF7D04E4FF1285767BFF7AB379D87D0439
:102BE3007F011285767BFF7AB379E17D047F021240
:102BF30085767BFF7AB379E67D047F030236E9901D
:102C030002C8E06514600C1289C9128A339002C8A5
:102C1300E514F09002E9E0FF24F67003022CD224BD
:102C2300A67003022DE814700302324E24FE7003D3
:102C33000236EC2495700302321A1470030236B87C
:102C430024D260030238F69002DBE06F600E128933
:102C5300C9128A339002E9E09002DBF07BFF7AB37A
:102C630079EFE4FDFF1285767BFF7AB379F2E4FD19
:102C73007F011285767BFF7AB27981E4FD7F0212B0
:102C830085767BFF7AB27984E4FD7F0312857690A3
:102C930003A57440F0A374FFF0A314F07B01E4FDDB
:102CA300FF1286527BFF7AB379F57D01E4FF12852B
:102CB30076900326E060030238F69003A57410F0C3
:102CC300A374FFF0A3F07B03E4FD7F01023831908E
:102CD30002E9E0FF9002DBE06F600E1289C9128AFD
:102CE300339002E9E09002DBF07BFF7AB379FCE4F6
:102CF300FDFF1285767BFF7AB379FFE4FD7F011236
:102D030085767BFF7AB27957E4FD7F021285769050
:102D130003A57430F0A374FFF0A314F07B01E4FD6A
:102D2300FF1286527BFF7AB479027D01E4FF12859C
:102D3300767BFF7AB4790B7D017F011285767BFF69
:102D43007AB479147D017F021285767BFF7AB47998
:102D53001D7D017F031285769002D8E0FF9002B0BB
:102D6300E0FE6F60189002D8EEF09003A57440F077
:102D7300E4A3F0A3F07B07FD7F011286529002D8F3
:102D8300E0146022146034146046240360030238A4
:102D9300F69003A57410F0A374FFF0A3F07B04E492
:102DA300FD7F010238319003A57410F0A374FFF086
:102DB300A3F07B047D107F010238319003A57410CA
:102DC300F0A374FFF0A3F07B047D207F0102383170
:102DD3009003A57410F0A374FFF0A3F07B047D307F
:102DE3007F010238319002E9E0FF9002DBE06F706F
:102DF300030230401289C9128A339002E9E090023B
:102E0300DBF09002D2E4F0A304F0E4900300F0902E
:102E13000300E0FFC394607480948050229003A564
:102E23007404F0A374FFF0A374ABF0A37425F07BD8
:102E330004E4FD124E6B900300E02404F080D0E420
:102E4300900300F0900300E0FFC3946074809480CB
:102E530050229003A57404F0A374FFF0A374ABF0A5
:102E6300A37425F07B047D3C124E6B900300E02499
:102E730004F080D09003017404F0900301E0FDC3DB
:102E8300943C7480948050229003A57404F0A3743E
:102E9300FFF0A374ABF0A37425F07B04E4FF124EA0
:102EA3006B900301E02404F080D09003017404F0DC
:102EB300900301E0FDC3943C7480948050229003FE
:102EC300A57404F0A374FFF0A374ABF0A37425F00E
:102ED3007B047F5C124E6B900301E02404F080D0EE
:102EE3009002FDE0FEA3E0FF1288B7900000740794
:102EF300F0A37405F0A37407F0A37404F090027EAA
:102F03007407F0A314F0E490027DF0900280F0A324
:102F13007402F0128A63127690E4900300F0900238
:102F23007CE0FF900300E0FEC39F5045EE25E024C4
:102F330069F582E43402F583E00425E025E0FFEE41
:102F430025E02468F582E43402F583E00425E025D6
:102F5300E0FD9003A57404F0A374FFF0A374ABF039
:102F6300A37411F07B04124E6B900300E004F08015
:102F7300ADE4900300F0900300E0FFD3900281E002
:102F83009F900280E09400404F900300E0FE75F0B4
:102F930002A42401F582E5F03400F583E00425E082
:102FA30025E0FF75F002EEA42400F582E5F034007D
:102FB300F583E00425E025E0FD9003A57404F0A368
:102FC30074FFF0A374AAF0A374F9F07B04124E6BA0
:102FD300900300E004F0809E90027DE075F004A46D
:102FE3002401F974AB35F0FA9003A674FFF0A3EA59
:102FF300F0A3E9F090027FE00425E025E0FF9002D2
:103003007EE00425E025E0FD9003A57404F0FB12A7
:103013004E6B900281E025E0FF900280E033FE7466
:10302300FE2FF58274FF3EF583E09002ECF074FF0F
:103033002FF58274FF3EF583E09002EDF09002B12C
:10304300E0FF9002EBE0C39F500302367EE4F0FF03
:10305300126D22900302EFF02402606214605F2479
:10306300FE7061127690E4900300F090027CE0FF22
:10307300900300E0FEC39F504BEE25E02469F582E8
:10308300E43402F583E00425E025E0FFEE25E024A7
:1030930068F582E43402F583E00425E025E0FD9041
:1030A30003A57404F0A374FFF0A374ABF0A374112D
:1030B300F07B04124E6B900300E004F080AD9002AD
:1030C300E974D2F0900302E0702B9002EDE0042546
:1030D300E025E0FF9002ECE00425E025E0FD90030D
:1030E300A57404F0A374FFF0A374A2F0A374F9F021
:1030F3007B04124E6B900281E025E0FF900280E09A
:1031030033FE74FE2FF58274FF3EF583E09002ECEC
:10311300F074FF2FF58274FF3EF583E09002EDF02B
:1031230090027DE075F004A42401F974AB35F0FA44
:103133009003A674FFF0A3EAF0A3E9F090027FE006
:103143000425E025E0FF90027EE00425E025E0FD74
:103153009003A57404F0FB124E6B900001E004256C
:10316300E025E0FF900000E00425E025E0FD90036A
:10317300A57404F0A374FFF0A374AAF0A374F9F088
:103183007B04124E6B7F30128B767F86128B769088
:103193000281E024FEFF900280E034FFFE7C037D89
:1031A300E812726F7C007D0A12726FED2430FF12F9
:1031B3008AD9900281E024FEFF900280E034FFFE72
:1031C3007C007D6412726F7C007D0A12726FED24A5
:1031D30030FF128AD9900281E024FEFF900280E042
:1031E30034FFFE7C007D0A12726F7C007D0A12722E
:1031F3006FED2430FF128AD9900281E024FEFF9004
:103203000280E034FFFE7C007D0A12726FED2430F1
:10321300FF128AD902367E9002E9E0FF9002DBE0DA
:103223006F600E1289C9128A339002E9E09002DBC3
:10323300F07BFF7AB479267D02E4FF1285767BFF6B
:103243007AB4792F7D027F010236E99002E9E0FF2B
:103253009002DBE06F70030234A61289C9128A332D
:103263009002E9E09002DBF09002D2E4F0A304F0D4
:10327300E4900300F0900300E0FFC3946074809433
:103283008050229003A57404F0A374FFF0A374ABE1
:10329300F0A37425F07B04E4FD124E6B900300E071
:1032A3002404F080D0E4900300F0900300E0FFC317
:1032B30094607480948050229003A57404F0A374E6
:1032C300FFF0A374ABF0A37425F07B047D3C124E96
:1032D3006B900300E02404F080D09003017404F0A9
:1032E300900301E0FDC3943C7480948050229003CA
:1032F300A57404F0A374FFF0A374ABF0A37425F0DA
:103303007B04E4FF124E6B900301E02404F080D0B1
:103313009003017404F0900301E0FDC3943C7480B6
:10332300948050229003A57404F0A374FFF0A37457
:10333300ABF0A37425F07B047F5C124E6B9003010A
:10334300E02404F080D09002FDE0FEA3E0FF1288A9
:10335300B79000007407F0A37405F0A37407F0A3FB
:103363007404F090027E7407F0A314F0E490027DDD
:10337300F0900280F0A37402F0128A63127690E454
:10338300900300F090027CE0FF900300E0FEC39FF7
:103393005045EE25E02469F582E43402F583E00428
:1033A30025E025E0FFEE25E02468F582E43402F50C
:1033B30083E00425E025E0FD9003A57404F0A374E5
:1033C300FFF0A374ABF0A37411F07B04124E6B9067
:1033D3000300E004F080ADE4900300F0900300E00C
:1033E300FFD3900281E09F900280E09400404F90D1
:1033F3000300E0FE75F002A42401F582E5F0340039
:10340300F583E00425E025E0FF75F002EEA4240037
:10341300F582E5F03400F583E00425E025E0FD9036
:1034230003A57404F0A374FFF0A374AAF0A374F9C2
:10343300F07B04124E6B900300E004F0809E900238
:103443007DE075F004A42401F974AB35F0FA900320
:10345300A674FFF0A3EAF0A3E9F090027FE004254D
:10346300E025E0FF90027EE00425E025E0FD9003E7
:10347300A57404F0FB124E6B900281E025E0FF90EF
:103483000280E033FE74FE2FF58274FF3EF583E085
:103493009002ECF074FF2FF58274FF3EF583E09009
:1034A30002EDF09002B1E0FF9002EBE0C39F500306
:1034B30002367EE4F07F01126D22900302EFF024C6
:1034C30002606214605F24FE7061127690E49003E0
:1034D30000F090027CE0FF900300E0FEC39F504B9E
:1034E300EE25E02469F582E43402F583E00425E067
:1034F30025E0FFEE25E02468F582E43402F583E05D
:103503000425E025E0FD9003A57404F0A374FFF007
:10351300A374ABF0A37411F07B04124E6B90030001
:10352300E004F080AD9002E974D3F0900302E07000
:103533002B9002EDE00425E025E0FF9002ECE0048F
:1035430025E025E0FD9003A57404F0A374FFF0A328
:1035530074A2F0A374F9F07B04124E6B900281E025
:1035630025E0FF900280E033FE74FE2FF58274FFA6
:103573003EF583E09002ECF074FF2FF58274FF3E7A
:10358300F583E09002EDF090027DE075F004A42451
:1035930001F974AB35F0FA9003A674FFF0A3EAF0D7
:1035A300A3E9F090027FE00425E025E0FF90027E8E
:1035B300E00425E025E0FD9003A57404F0FB124E22
:1035C3006B900001E00425E025E0FF900000E0049B
:1035D30025E025E0FD9003A57404F0A374FFF0A398
:1035E30074AAF0A374F9F07B04124E6B7F30128B34
:1035F300767F86128B76900281E024FEFF90028014
:10360300E034FFFE7C037DE812726F7C007D0A12BA
:10361300726FED2430FF128AD9900281E024FEFFFD
:10362300900280E034FFFE7C007D6412726F7C00A8
:103633007D0A12726FED2430FF128AD9900281E065
:1036430024FEFF900280E034FFFE7C007D0A1272AC
:103653006F7C007D0A12726FED2430FF128AD990BD
:103663000281E024FEFF900280E034FFFE7C007DB7
:103673000A12726FED2430FF128AD99002EBE00434
:10368300F0900322E004F07F30128B767F9F128B41
:1036930076900287E075F06484E5F075F00A84247F
:1036A30030FF128AD9900287E075F00A84E5F0248E
:1036B30030FF028AD99002E9E0FF9002DBE06F60FD
:1036C3000E1289C9128A339002E9E09002DBF07B83
:1036D300FF7AB479267D02E4FF1285767BFF7AB404
:1036E300792F7D027F010285769002E9E0FF900247
:1036F300DBE06F60561289C9128A339002E9E090C9
:1037030002DBF07BFF7AB4793AE4FDFF1285767B26
:10371300FF7AB4793DE4FD7F011285767BFF7AB2AF
:1037230079DDE4FD7F021285767BFF7AB279E0E4EE
:10373300FD7F031285769003A57440F0A374FFF018
:10374300A314F07B01E4FDFF1286527BFF7AB47968
:10375300407D01E4FF1285767BFF7AB4794B7D01CE
:103763007F011285767F30128B767F86128B76905F
:10377300027CE075F00A8475F00A84E5F02430FFDA
:10378300128AD990027CE075F00A84E5F02430FFB8
:10379300128AD97F96128B769002DFE0FFC3740AF8
:1037A3009FFFE49400FE7C007D0A12726FEF75F0B8
:1037B3000A84E5F02430FF128AD99002DFE0FFC3C8
:1037C300740A9FFFE49400FE7C007D0A12726FED81
:1037D3002430FF128AD99002FCE0FF9002DDE0FE64
:1037E3006F60189002FCEEF09003A57440F0E4A320
:1037F300F0A3F07B07FD7F011286529002DDE014F7
:10380300601A0460030238F69003A57410F0A374E1
:10381300FFF0A3F07B01E4FD7F0680129003A57403
:1038230010F0A374FFF0A3F07B017D107F060286E6
:10383300529002C8E06514600C1289C9128A339051
:1038430002C8E514F09002C3E0D3942874809480F6
:10385300401B9003A57440F0A374FFF0A374AFF072
:10386300A37429F07B40E4FD7F20125D199002C30D
:10387300E0FF7E00C3942874809480506BEF941C07
:10388300748094804021E024E375F003A4FF900347
:10389300A57440F0A374FFF0A374AFF0A37429F0F0
:1038A3007B40E4FD125D199002C3E0C39419748058
:1038B300948050347BFF7AB379CF7D04E4FF128583
:1038C300767BFF7AB379D87D047F011285767BFFFF
:1038D3007AB379E17D047F021285767BFF7AB3792F
:1038E300E67D047F031285769002C3E014F0E07056
:1038F30002F51422E49003B6F0E51412733C392C5C
:10390300003A67013B030A3D570B3F620C489A0D8F
:1039130049580E4A850F4AAA103D21644D9CA84E72
:1039230034A94E4FFF00004E6AAF367E00EF64802D
:103933006012E5396480600CE53864806006E53721
:103943006480704490028BE0D3940174809480402F
:1039530004E024FEF0900294E0D3940174809480F8
:103963004004E024FEF090029DE0D394017480941F
:10397300804004E024FEF09002A6E0D3940174801A
:1039830094804004E024FEF0EF64804E700FE5372E
:103993006480C37001D34005751401C200AF397E42
:1039A30000EF6480705230034FE5376480C37001C9
:1039B300D34045900324E09402748094805005E042
:1039C30004F08005E4900324F0900327E07009904D
:1039D3000324E07003E004F0900328E0700B9003ED
:1039E30024E064017003E004F0900285E0FDA3E0AD
:1039F3009002C1CDF0A3EDF0E5386480702330026E
:103A030020EF64804EC37001D34016900325E094E9
:103A130003748094805005E004F08005E49003254E
:103A2300F0E5376480701030010DE5396480C370B0
:103A330001D340031261F2E5376480700CE5396409
:103A4300807006300303125696E5376480600302E4
:103A53004E6AE53864806003024E6A200303024E17
:103A63006A024953E53764807F0070027F01A20137
:103A7300E4335F6005E4F514C201E53864807F0038
:103A830070027F01A202E4335F60199003CDE0FF6F
:103A93009003D6E0C39F5005E004F08005E4900353
:103AA300D6F0C202E53964807F0070027F01A20371
:103AB300E4335F601C9003D6E0D394007480948059
:103AC3004005E014F080089003CDE09003D6F0C2E7
:103AD30003E53664807F0070027F01A200E4335F58
:103AE3007003024E6A9003D6E0FFC3940774809478
:103AF300805007EF240AF514800375140AC20022CC
:103B0300E53764807F0070027F01A201E4335F60C8
:103B1300199003D5E0FF7E007003751401EF640173
:103B23004E70077514649003D5F0E53664807F000A
:103B330070027F01A200E4335F60179003CEE0FFC1
:103B43009003D7E0C39F5005E004F08005E49003A1
:103B5300D7F0E533540364036014E53864807F00D1
:103B630070027F01A202E4335F7003023C379003CB
:103B7300D7E0C394067480948050069003D57401F3
:103B8300F07F011282759003D7E0606014607314B4
:103B93007003023C1B24FE60201460312402600386
:103BA300023C329003C5E0C3946374809480500256
:103BB3008073E49003C5F080769003C3E0C3940C54
:103BC300748094805002805D9003C3801A9003C573
:103BD300E0FF9003C3E0FD1287789003C2E0C39F28
:103BE300500280419003C27401F080439003C1E00E
:103BF300C39417748094805002802AE49003C1F028
:103C0300802D9003C0E0C3943B7480948050028065
:103C130014E49003C0F080179003BFE0C3943B7497
:103C23008094805005E004F08005E49003BFF07FAA
:103C330002128275E535540364036014E539648028
:103C43007F0070027F01A203E4335F7003024E6AB8
:103C53009003D7E0C394067480948050069003D5F4
:103C63007401F07F011282759003D7E060681460DD
:103C73007C147003023D0424FE6021146035240289
:103C83006003023D1C9003C5E0D3940074809480CC
:103C93004002807A9003C57463F0807D9003C3E093
:103CA300D3940174809480400280639003C3740CA6
:103CB300F080669003C2E0D3940174809480400244
:103CC300804C9003C5E0FF9003C3E0FD128778901A
:103CD30003C2EFF080439003C1E0D3940074809457
:103CE30080400280299003C17417F0802C9003C098
:103CF300E0D3940074809480400280129003C080CB
:103D0300159003BFE0D39400748094804005E014C1
:103D1300F080069003BF743BF07F02028275E536A4
:103D230064807F0070027F01A200E4335F600E12A3
:103D33008A019003BAE0900329F0751401E5376412
:103D4300807F0070027F01A201E4335F7003024EA3
:103D53006A024AF4E53764807F0070027F01A201A2
:103D6300E4335F60237514019003D8740AF0900262
:103D730085E0FEA3E0FFD39002C2E09F9002C1E082
:103D83009E4005EEF0A3EFF0E53664807F007002FD
:103D93007F01A200E4335F60179003CFE0FF90033D
:103DA300D8E0C39F5005E004F08005E49003D8F009
:103DB3009003D8E0D3940574809480401CE5386464
:103DC3008070083002057F04128501E53964807034
:103DD300083003057F05128501E53354036403604E
:103DE30014E53864807F0070027F01A202E4335F30
:103DF3007003023EA09003D8E014602614603C14C4
:103E0300605714607224046003023EA0900327E00D
:103E1300C394017480948050028014E4900327F0CB
:103E2300807B900328E0C39401748094805005E064
:103E330004F08069E4900328F08062C39002CBE031
:103E430094709002CAE09417500AA3E02464F0909F
:103E530002CA803A9002CA803EC39002CDE09470B9
:103E63009002CCE09417500AA3E02464F09002CCB3
:103E7300801C9002CC8020C3900286E09470900254
:103E830085E09417500EA3E02464F0900285E0349B
:103E930000F08009900285E4F0A37464F0E53554E2
:103EA3000364036014E53964807F0070027F01A21C
:103EB30003E4335F7003024E6A9003D8E014602575
:103EC30014603914605414606F24046003024E6A52
:103ED300900327E0D39400748094804003024A3C0B
:103EE3009003278013900328E0D394007480948078
:103EF3004003024A3C9003287401F022D39002CB82
:103F0300E094649002CAE09400400AA3E0249CF089
:103F13009002CA803A9002CA803DD39002CDE094C9
:103F2300649002CCE09400400AA3E0249CF0900249
:103F3300CC801C9002CC801FD3900286E094C89062
:103F43000285E09400400DA3E0249CF0900285E0FC
:103F530034FFF0229002857417F0A37470F022905E
:103F63000284E06003023FF4E53764807F0070025F
:103F73007F01A201E4335F6003751401E5366480B9
:103F8300701A3000179002B2E0C3940374809480D7
:103F93005005E004F08005E49002B2F0AF387E00F3
:103FA300EF64807003200209E5396480701A3003DE
:103FB300179002B2E0C3940474809480500AC20242
:103FC300C203900284E004F09002B2E0D39404743C
:103FD300809480401CEF64804E70083002057F019E
:103FE300128501E539648070083003057F0212856C
:103FF30001900284E0D39400748094805003024EB5
:104003006AE53764807004300101F0E5366480703E
:104013004D30004AC2009002B2E075F009A4249327
:10402300F582E43402F583E0FF7018900284E0C364
:104033009408748094805005E004F0800690028414
:104043007401F0EF6018900284E0C3940C748094C0
:10405300805005E004F080069002847401F0AF38CC
:104063007E00EF6480700320020BE5335403640386
:104073006003024576900284E014B40C004003020E
:10408300457690409375F003A4C58325F0C58373EB
:104093000240B70240EE0241290241640241AA02F2
:1040A30041E502429C0243540244320244860244E4
:1040B300DA02452CEF64804E60030245762002034A
:1040C3000245769002B2E0FF75F009A4248BF582D5
:1040D300E43402F583E0FEC374019EFEEF75F0093C
:1040E300A4248BF582E434020241DE9002B2E0FFA5
:1040F30075F009A4248CF582E43402F583E0C394BB
:104103001774809480500EEF75F009A4248CF58207
:10411300E4340280749002B2E075F009A4248CF5B3
:1041230082E43402807A9002B2E0FF75F009A4249D
:104133008DF582E43402F583E0C3943B748094806C
:10414300500EEF75F009A4248DF582E43402803912
:104153009002B2E075F009A4248DF582E434028064
:104163003F9002B2E0FF75F009A4248EF582E43497
:1041730002F583E0C3943B748094805014EF75F090
:1041830009A4248EF582E43402F583E004F00245A9
:10419300769002B2E075F009A4248EF582E434022D
:1041A300F583E4F0024576E53864806003024576E2
:1041B3002002030245769002B2E0FF75F009A424C1
:1041C30093F582E43402F583E0FEC374019EFEEFAF
:1041D30075F009A42493F582E43402F583EEF0022A
:1041E30045769002B2E0FF75F009A42493F582E4CA
:1041F3003402F583E0703AEF75F009A4248FF58259
:10420300E43402F583E0C39463748094809002B233
:10421300E075F009500FA4248FF582E43402F5838E
:10422300E004F0800CA4248FF582E43402F583E4E7
:10423300F09002B2E0FF75F009A42493F582E43410
:1042430002F583E07003024576E53864806003027B
:104253004576200203024576EF75F009A42492F512
:1042630082E43402F583E0FF54809002B27015E0DB
:1042730075F009A42492F582E43402F583EF4480B7
:10428300F0024576E075F009A42492F582E4340245
:10429300F583E0547FF00245769002B2E0FF75F0BB
:1042A30009A42493F582E43402F583E0703BEF75AF
:1042B300F009A42490F582E43402F583E0C3940C5E
:1042C300748094809002B2E075F009500FA424909A
:1042D300F582E43402F583E004F0800DA42490F524
:1042E30082E43402F5837401F09002B2E0FF75F0CA
:1042F30009A42493F582E43402F583E070030245B4
:1043030076E5386480600302457620020302457631
:10431300EF75F009A42492F582E43402F583E0FFFB
:1043230054409002B27015E075F009A42492F5820E
:10433300E43402F583EF4440F0024576E075F0097A
:10434300A42492F582E43402F583E054BFF00245DD
:10435300769002B2E0FE75F009A42493F582E4346A
:1043630002F583E07061EE75F009A4248FF582E411
:104373003402F583E0FFEE75F009A42490F582E49E
:104383003402F583E0FD1287789002B2E0FE75F007
:1043930009A42491F582E43402F583E0C39F50130A
:1043A300EE75F009A42491F582E43402F583E00468
:1043B300F080149002B2E075F009A42491F582E430
:1043C3003402F5837401F09002B2E0FF75F009A4A2
:1043D3002493F582E43402F583E07003024576E525
:1043E3003864806003024576200203024576EF7548
:1043F300F009A42492F582E43402F583E0FF54200B
:104403009002B27015E075F009A42492F582E434A9
:1044130002F583EF4420F0024576E075F009A42409
:1044230092F582E43402F583E054DFF0024576E549
:1044330038648060030245762002030245769002C9
:10444300B2E0FF75F009A42492F582E43402F58307
:10445300E0FE54107015EF75F009A42492F582E480
:104463003402F583EE4410F00245769002B2E07513
:10447300F009A42492F582E43402F583E054EFF0CA
:10448300024576E538648060030245762002030224
:1044930045769002B2E0FF75F009A42492F582E418
:1044A3003402F583E0FE54087015EF75F009A42477
:1044B30092F582E43402F583EE4408F002457690E7
:1044C30002B2E075F009A42492F582E43402F58384
:1044D300E054F7F0024576E53864806003024576E0
:1044E3002002030245769002B2E0FF75F009A4248E
:1044F30092F582E43402F583E0FE54047014EF7500
:10450300F009A42492F582E43402F583EE4404F026
:1045130080619002B2E075F009A42492F582E4343C
:1045230002F583E054FBF0804AE538648070443040
:1045330002419002B2E0FF75F009A42492F582E4EF
:104543003402F583E0FE54027014EF75F009A424DD
:1045530092F582E43402F583EE4402F08015900272
:10456300B2E075F009A42492F582E43402F583E005
:1045730054FDF0AF397E00EF6480700320030BE538
:1045830035540364036003024E6A900284E014B45A
:104593000C004003024E6A9045A875F003A4C5833E
:1045A30025F0C583730245CC024603024642024608
:1045B3007D0246BF0246F80247740247ED02488E69
:1045C300024890024892024894EF64804E600302CE
:1045D3004E6A200303024E6A9002B2E0FF75F009AF
:1045E300A4248BF582E43402F583E0FEC374019EB8
:1045F300FEEF75F009A4248BF582E434020246F33E
:104603009002B2E0FF75F009A4248CF582E4340231
:10461300F583E0D3940074809480400EEF75F00925
:10462300A4248CF582E4340280789002B2E075F021
:1046330009A4248CF582E43402F5837417F02290E4
:1046430002B2E0FF75F009A4248DF582E43402F58B
:1046530083E0D3940074809480400EEF75F009A436
:10466300248DF582E4340280399002B2E075F009BA
:10467300A4248DF582E43402803C9002B2E0FF75FD
:10468300F009A4248EF582E43402F583E0D3940088
:10469300748094804011EF75F009A4248EF582E4B0
:1046A3003402F583024A3C9002B2E075F009A42477
:1046B3008EF582E43402F583743BF022E53964809D
:1046C3006003024E6A200303024E6A9002B2E0FFC7
:1046D30075F009A42493F582E43402F583E0FEC364
:1046E30074019EFEEF75F009A42493F582E434026D
:1046F300F583EEF0229002B2E0FF75F009A4249353
:10470300F582E43402F583E0703BEF75F009A424ED
:104713008FF582E43402F583E0D3940074809480AF
:104723009002B2E075F009400FA4248FF582E434BF
:1047330002F583E014F0800DA4248FF582E43402A3
:10474300F5837463F09002B2E075F009A42493F545
:1047530082E43402F583E07003024E6AE539648033
:104763006003024E6A200303024E6A900284024AE7
:104773003C9002B2E0FF75F009A42493F582E4347F
:1047830002F583E0703BEF75F009A42490F582E411
:104793003402F583E0D39400748094809002B2E0F5
:1047A30075F009400FA42490F582E43402F583E008
:1047B30014F0800DA42490F582E43402F583740C84
:1047C300F09002B2E075F009A42493F582E4340278
:1047D300F583E07003024E6AE53964806003024E9C
:1047E3006A200303024E6A0248949002B2E0FF7506
:1047F300F009A42493F582E43402F583E07064EFB6
:1048030075F009A42491F582E43402F583E0D3948E
:1048130000748094809002B2E0401275F009A424E1
:1048230091F582E43402F583E014F08036FE75F0EE
:1048330009A4248FF582E43402F583E0FFEE75F0DA
:1048430009A42490F582E43402F583E0FD1287780D
:104853009002B2E075F009A42491F582E43402F5E4
:1048630083EFF09002B2E075F009A42493F582E49B
:104873003402F583E07003024E6AE5396480600315
:10488300024E6A200303024E6A800680048002807F
:1048930000900284024D307F01127F85EF6016E5A0
:1048A300226012E524600EE525600A7514017F0578
:1048B300127C07C2BCE5366480701DE5236019E5F0
:1048C300246015E52560119003E3E064016004E4CE
:1048D300FF80027F01127C07E5386480700AE522BD
:1048E30070067F01FE127E13E53864806008E533AD
:1048F300540364037009E52260057F04127C07E515
:104903003964806008E5355403640370057F03123E
:104913007C07E5237013E53864806008E5335403AE
:10492300640370057F06127C07E5237013E5396481
:10493300806008E5355403640370057F07127C0724
:10494300E5236003024E6AE53664806003024E6A23
:104953007F02027C07E53764807017E5366480C305
:104963007001D3400DE5396480C37001D3400375F2
:104973001401E536648070179002E1E0C394047477
:104983008094805005E004F08005E49002E1F0E5B6
:1049930038648070709002E1E0146015146026148E
:1049A30060371460482404705C9002EAE0F4F080FD
:1049B300549002B3E0C3941E748094805002803AF2
:1049C3009002B3803D9002B4E0C3941E748094803F
:1049D300500280269002B480299002B5E0C3941E51
:1049E30074809480500280129002B580159002B6B4
:1049F300E0C3941E748094805005E004F080069018
:104A030002B67401F0E53964806003024E6A9002D5
:104A1300E1E014601714602914603B14604D240412
:104A23006003024E6A9002EAE0F4F0229002B3E0DF
:104A3300D39401748094804003024D309002B3807C
:104A43003D9002B4E0D39401748094804003024DFE
:104A5300309002B480289002B5E0D394017480941E
:104A6300804003024D309002B580139002B6E0D32C
:104A73009401748094804003024D309002B6741EFA
:104A8300F022E53764806003024E6AE5366480C332
:104A93007001D35003024E6AE5396480C37001D3B9
:104AA3005003024E6A804A9002E9E024F6604624ED
:104AB300A67003024B50147003024BEA14700302F6
:104AC3004C83147003024C9224957003024D5214CC
:104AD3007003024D7724D26003024E6AE536648088
:104AE30070069002E9740AF0E53764806003024EB1
:104AF3006A75140122E5366480700A9002B0E024DE
:104B0300649002E9F0E537648070059002E904F0EF
:104B1300E538648070179002B0E0C3940374809406
:104B2300805005E004F08005E49002B0F0E53964BC
:104B3300806003024E6A9002B0E0D39400748094C4
:104B4300804003024D309002B07403F022E53764D5
:104B53008070069002E9740AF090027DE09003D021
:104B6300F0E53864807015E0D3940074809480403D
:104B730005E014F080069003D07403F0E5396480F7
:104B830070179003D0E0C39403748094805005E0C1
:104B930004F08005E49003D0F0900000E0FF900261
:104BA3007EE0B507169003D0E0FF64016005EF6473
:104BB3000370089003D0E090027DF0900001E0FFC5
:104BC30090027FE0B507129003D0E06004640270A6
:104BD300089003D0E090027DF030B7079002DFE049
:104BE300024E2FE4024E2FE537648070069002E9EF
:104BF300740AF090027DE09003D0F0E53864807091
:104C030015E0D39400748094804005E014F080068E
:104C13009003D07403F0E539648070179003D0E0FB
:104C2300C39403748094805005E004F08005E490FD
:104C330003D0F0900000E0FF90027EE0B5071690ED
:104C430003D0E0FF64016005EF640370089003D0B4
:104C5300E090027DF0900001E0FF90027FE0B50755
:104C6300129003D0E06004640270089003D0E090D7
:104C7300027DF030B7069002DFE08001E4024E2FA0
:104C8300E53764806003024E6A9002E9024D37E51E
:104C930037648070069002E9740AF0E53664807028
:104CA300179002DDE0D39400748094804004E4F014
:104CB30080069002DDE004F0E53864806008E533A7
:104CC30054036403703C9002DDE014601D047032F1
:104CD30090027CE0C3940A748094805005E004F051
:104CE300802090027C7401F080189002DFE0D3945E
:104CF30000748094804005E014F080069002DF7415
:104D03000AF0E5396480600BE535540364036003FE
:104D1300024E6A9002DDE014601E046003024E6AD4
:104D230090027CE0D39401748094804004E014F0FA
:104D33002290027C740AF0229002DFE0C3940A748A
:104D43008094805004E004F022E49002DFF022E536
:104D5300376480700F9002E9740AF09002D2E4F095
:104D6300A37405F0E53664806003024E6A9002E99D
:104D73007464F022E5376480700F9002E9740AF0DE
:104D83009002D2E4F0A37405F0E536648060030278
:104D93004E6A9002E97465F022E53764807003750A
:104DA300140190027DE09003D0F0E5386480701523
:104DB300E0D39400748094804005E014F080069062
:104DC30003D07403F0E539648070179003D0E0C317
:104DD3009403748094805005E004F08005E490030C
:104DE300D0F0900000E0FF90027EE0B5071690033C
:104DF300D0E0FF64016005EF640370089003D0E026
:104E030090027DF0900001E0FF90027FE0B5071271
:104E13009003D0E06004640270089003D0E0900235
:104E23007DF030B7069002DFE08001E49002B1F03C
:104E330022E5376480700B7514019002D2F0A374DD
:104E430005F0E5366480701F75141022E536648022
:104E53006012E5396480600CE53864806006E537EC
:104E630064807003E4F514229003A2128B6CE014A7
:104E7300FFC4540F9003B3F0EF131313541F04A391
:104E8300F09003A2E054079003B0F0E49003B2F073
:104E93009003A5E0FF9003B2E0FEC39F40030256D8
:104EA300959003A3E0F9FDEE2DFDE433FCC3ED94EF
:104EB30020EC6480948050339003A2E0FEC4540F2E
:104EC30024809003A9F09003B2E02924809003AAE0
:104ED300F09003A4E0FDEE2DFFE433FEEF7804CE63
:104EE300A2E713CE13D8F8248080369003A2E0FD06
:104EF300C4540F24889003A9F09003A3E0FF900308
:104F0300B2E02F24609003AAF09003A4E0FFED2FFA
:104F1300FFE433FEEF7804CEA2E713CE13D8F824D0
:104F2300889003ABF09003AAE0FF128B769003A95D
:104F3300E0FF128B76128BEE128BEE9003ACEFF048
:104F4300128BEEA3EFF09003A4E0FF9003A2E02FF7
:104F5300FFE433CF24FFCF34FFFEC3EF94FFEE64AF
:104F6300809480501F9003AAE0FF128B76A3E0FF8A
:104F7300128B76128BEE128BEE9003AEEFF0128B48
:104F8300EEA3EFF09003AAE0FF128B769003A9E063
:104F9300FF128B76E49003B1F09003B4E0FF90032B
:104FA300B1E0FEC39F400302568C9003A2E0540F6E
:104FB300C39408748094804003025314EE60030288
:104FC30051169003A4E0FF9003B0E02FFFE433FEFB
:104FD300C3EF9408EE6480948050729003B4E0FFB2
:104FE3009003B2E08FF0A4FF9003B1E07C002FFFA9
:104FF300EC35F0FE9003A6E0FBA3E0FAA3E0F98F03
:10500300828E83127230FF9003B0E0FEF8EF0880C7
:1050130002C313D8FCFFC374089EFE9003ACE0FDEB
:10502300A806088002C313D8FCFCA806088002C3A4
:1050330033D8FC4FFF9003A4E0FE9003B0E02EFEB4
:10504300F874FF088002C313D8FC0253AD9003B475
:10505300E0FF9003B2E08FF0A4FF9003B1E07C0087
:105063002FFFEC35F0FE9003A6E0FBA3E0FAA3E0EC
:10507300F98F828E83127230FF9003B0E0FEF8EF57
:10508300088002C313D8FCFFC374089EFE9003ACD0
:10509300E0FDA806088002C313D8FCFDA80608801B
:1050A30002C333D8FC4FFF128AD99003B4E0FF90B8
:1050B30003B2E08FF0A4FF9003B1E07C002FFFEC7C
:1050C30035F0FE9003A6E0FBA3E0FAA3E0F98F829C
:1050D3008E83127230FF9003B0E0FEC374089EFD0E
:1050E300F8EF088002C333D8FCFD9003ADE0A806B7
:1050F3007E00088005C333CE33CED8F9FF9003B0CA
:10510300E0FCEFA804088006CEA2E713CE13D8F87C
:105113000254759003B4E0FF14FE9003B1E0FD6EFA
:105123006003025291A3E08FF0A47C002DFFEC35C5
:10513300F0CF24FFCF34FFFE9003A6E0FBA3E0FAF9
:10514300A3E0F98F828E83127230FF9003B0E0FEEA
:10515300C374089EFEF8EF088002C333D8FCFD90A9
:1051630003B4E0FF9003B2E08FF0A4FF9003B1E03B
:105173007A002FFFEA35F0FE9003A6E0FBA3E0FAE6
:10518300A3E0F98F828E83127230FF9003B0E0FEAA
:10519300F8EF088002C313D8FC4DFF128AD990039D
:1051A300A4E0FF9003A2E02FFFE433CF24FFCFEF6F
:1051B300540F640F70030256839003B4E0FF20E0A2
:1051C300649003B2E08FF0A4FF9003B1E07C002F62
:1051D300FFEC35F0FE9003A6E0FBA3E0FAA3E0F9B1
:1051E3008F828E83127230FF9003B0E0FEC3740887
:1051F3009EFDF8EF088002C333D8FCFD9003AEE0B8
:10520300A8067E00088005C333CE33CED8F9FF90BD
:1052130003B0E0FCEFA804088006CEA2E713CE1388
:10522300D8F80255889003B4E0FF9003B2E08FF002
:10523300A4FF9003B1E07C002FFFEC35F0FE900358
:10524300A6E0FBA3E0FAA3E0F98F828E831272300B
:10525300FF9003B0E0FEC374089EFDF8EF088002E0
:10526300C333D8FCFD9003AFE0A8067E0008800599
:10527300C333CE33CED8F9FF9003B0E0FCEFA804DC
:10528300088006CEA2E713CE13D8F8025475900314
:10529300B4E0FF9003B2E08FF0A4FF9003B1E07C91
:1052A300002FFFEC35F0CF24FFCF34FFFE9003A691
:1052B300E0FBA3E0FAA3E0F98F828E83127230FF42
:1052C3009003B0E0FEC374089EFEF8EF088002C3AB
:1052D30033D8FCFD9003B4E0FF9003B2E08FF0A459
:1052E300FF9003B1E07A002FFFEA35F0FE9003A6AA
:1052F300E0FBA3E0FAA3E0F98F828E83127230FF02
:105303009003B0E0FEF8EF088002C313D8FC025408
:10531300759003B1E060030254799003ACE0FF128F
:105323008AD99003A4E0FF9003B0E02FFFE433FE9B
:10533300C3EF9408EE6480948050749003B4E0FF4C
:105343009003B2E08FF0A4FF9003B1E07C002FFF45
:10535300EC35F0FE9003A6E0FBA3E0FAA3E0F98F9F
:10536300828E83127230FF9003B0E0FEF8EF088064
:1053730002C313D8FCFFC374089EFE9003ADE0FD87
:10538300A806088002C313D8FCFCA806088002C341
:1053930033D8FC4FFF9003A4E0FE9003B0E02EFE51
:1053A300F874FF088002C313D8FC5D4F02567F9048
:1053B30003B4E0FF9003B2E08FF0A4FF9003B1E0E9
:1053C3007C002FFFEC35F0FE9003A6E0FBA3E0FA90
:1053D300A3E0F98F828E83127230FF9003B0E0FE58
:1053E300F8EF088002C313D8FCFFC374089EFE9035
:1053F30003ADE0FDA806088002C313D8FCFDA80690
:10540300088002C333D8FC4FFF128AD99003B4E05B
:10541300FF9003B2E08FF0A4FF9003B1E07C002F74
:10542300FFEC35F0FE9003A6E0FBA3E0FAA3E0F95E
:105433008F828E83127230FF9003B0E0FEC3740834
:105443009EFDF8EF088002C333D8FCFD9003AEE065
:10545300A8067E00088005C333CE33CED8F9FF906B
:1054630003B0E0FCEFA804088006CEA2E713CE1336
:10547300D8F84D02567F9003B4E0FF14FE9003B1B9
:10548300E0FD6E60030255FEA3E08FF0A47C002DC7
:10549300FFEC35F0CF24FFCF34FFFE9003A6E0FBF3
:1054A300A3E0FAA3E0F98F828E83127230FF900398
:1054B300B0E0FEC374089EFEF8EF088002C333D841
:1054C300FCFD9003B4E0FF9003B2E08FF0A4FF90E3
:1054D30003B1E07A002FFFEA35F0FE9003A6E0FB6C
:1054E300A3E0FAA3E0F98F828E83127230FF900358
:1054F300B0E0FEF8EF088002C313D8FC4DFF128A18
:10550300D99003A4E0FF9003A2E02FFFE433CF245C
:10551300FFCFEF540F640F70030256839003B4E080
:10552300FF30E06D9003B2E08FF0A4FF9003B1E091
:105533007C002FFFEC35F0FE9003A6E0FBA3E0FA1E
:10554300A3E0F98F828E83127230FF9003B0E0FEE6
:10555300C374089EFDF8EF088002C333D8FCFD90A6
:1055630003AEE0A8067E00088005C333CE33CED851
:10557300F9FF9003B0E0FCEFA804088006CEA2E791
:1055830013CE13D8F84DFF128AD99003AFE0025619
:105593007F9003B4E0FF9003B2E08FF0A4FF900389
:1055A300B1E07C002FFFEC35F0FE9003A6E0FBA3F7
:1055B300E0FAA3E0F98F828E83127230FF9003B07A
:1055C300E0FEC374089EFDF8EF088002C333D8FCE5
:1055D300FD9003AFE0A8067E00088005C333CE33F9
:1055E300CED8F9FF9003B0E0FCEFA804088006CE04
:1055F300A2E713CE13D8F84D02567F9003B4E0FF11
:105603009003B2E08FF0A4FF9003B1E07C002FFF82
:10561300EC35F0CF24FFCF34FFFE9003A6E0FBA3CD
:10562300E0FAA3E0F98F828E83127230FF9003B009
:10563300E0FEC374089EFEF8EF088002C333D8FC73
:10564300FD9003B4E0FF9003B2E08FF0A4FF90035A
:10565300B1E07A002FFFEA35F0FE9003A6E0FBA34A
:10566300E0FAA3E0F98F828E83127230FF9003B0C9
:10567300E0FEF8EF088002C313D8FC4DFF128AD96D
:105683009003B1E004F0024F9C9003B2E004F002F7
:105693004E9322E4FD0D2443F582E43403F5837431
:1056A300AAF00D74432401F582E43403F583741BDB
:1056B300F00D74432402F582E43403F583E4F00D22
:1056C30074432403F582E43403F5837431F00D74D9
:1056D300432404F582E43403F5837433F00D7443F7
:1056E3002405F582E43403F5837458F00D744324E0
:1056F30006F582E43403F5837432F00D7443240712
:10570300F582E43403F5837458F00D74432408F5EB
:1057130082E43403F5837430F00D74432409F58275
:10572300E43403F5837458F09003BEE0FFC4540FD0
:105733002430FE0D7443240AF582E43403F583EE2A
:10574300F00D7443240BF582E43403F5837458F0AD
:10575300EF540F2430FF0D7443240CF582E434031B
:10576300F583EFF00D7443240DF582E43403F583E0
:105773007430F00D7443240EF582E43403F583741E
:1057830035F09003BCE0FFC4540FF9FB7A0070239B
:105793000D7443240FF582E43403F5837458F0EF5A
:1057A300540F2430FF0D74432410F582E43403F5C1
:1057B30083EFF0EB64014A704CAF050D74432FF592
:1057C30082E43403F5837458F0AF050D74432FF569
:1057D30082E43403F5837441F09003BCE0540FFF7B
:1057E3006023AE050D74432EF582E43403F5837410
:1057F30058F0EF2430FFAE050D74432EF582E434E8
:1058030003F583EFF0E9D39401748094804071AF82
:10581300050D74432FF582E43403F5837458F09037
:1058230003BCE0FFE92430FEAC050D74432CF58284
:10583300E43403F583EEF0AE050D74432EF582E4F4
:105843003403F5837458F0AE050D74432EF582E4EA
:105853003403F5837441F0EF540FFF6023AE050D5D
:1058630074432EF582E43403F5837458F0EF243047
:10587300FFAE050D74432EF582E43403F583EFF098
:10588300AF050D74432FF582E43403F5837430F0D0
:10589300AF050D74432FF582E43403F5837436F0BA
:1058A3009003BBE0FFC4540FF9FB7A007025AE05EB
:1058B3000D74432EF582E43403F5837458F0EF54EA
:1058C3000F2430FFAE050D74432EF582E43403F547
:1058D30083EFF0EB64014A704CAF050D74432FF571
:1058E30082E43403F5837458F0AF050D74432FF548
:1058F30082E43403F5837441F09003BBE0540FFF5B
:105903006023AE050D74432EF582E43403F58374EE
:1059130058F0EF2430FFAE050D74432EF582E434C6
:1059230003F583EFF0E9D39401748094804071AF61
:10593300050D74432FF582E43403F5837458F09016
:1059430003BBE0FFE92430FEAC050D74432CF58264
:10595300E43403F583EEF0AE050D74432EF582E4D3
:105963003403F5837458F0AE050D74432EF582E4C9
:105973003403F5837441F0EF540FFF6023AE050D3C
:1059830074432EF582E43403F5837458F0EF243026
:10599300FFAE050D74432EF582E43403F583EFF077
:1059A300AF050D74432FF582E43403F5837430F0AF
:1059B300AF050D74432FF582E43403F5837437F098
:1059C300AF050D74432FF582E43403F5837431F08E
:1059D300AF050D74432FF582E43403F5837432F07D
:1059E3009003BDE0540FFF64076003EF7022AF051F
:1059F3000D74432FF582E43403F5837430F0AF055F
:105A03000D74432FF582E43403F5837437F0802853
:105A1300AF050D74432FF582E43403F5837458F016
:105A23009003BDE0540F2430FFAE050D74432EF5F3
:105A330082E43403F583EFF0AF050D74432FF58251
:105A4300E43403F5837430F0AF050D74432FF5820E
:105A5300E43403F5837438F0AF050D74432FF582F6
:105A6300E43403F5837441F0E50C75F00A84E5F042
:105A73002430FFAE050D74432EF582E43403F58321
:105A8300EFF0AF050D74432FF582E43403F583740F
:105A930042F0E50C75F00C84E5F02430FFAE050D03
:105AA30074432EF582E43403F583EFF0AF050D74F0
:105AB300432FF582E43403F5837430F0AF050D749E
:105AC300432FF582E43403F5837435F0AF0A7E0087
:105AD300EF64017023AC050D74432CF582E43403A9
